:020000040800F2
:10000000601000201D020008AD1400089F110008B8
:10001000A9140008D5070008FF2A00080000000006
:10002000000000000000000000000000C31B0008EA
:10003000D907000800000000E91800089D1D00080D
:1000400037020008370200083702000837020008AC
:100050003702000837020008AD080008150A00083A
:100060003702000837020008CD0A000837020008EE
:10007000370200083702000837020008370200087C
:10008000370200083702000837020008370200086C
:10009000370200083702000837020008710B000819
:1000A000370200083702000837020008370200084C
:1000B000370200083702000837020008370200083C
:1000C000370200083702000837020008370200082C
:1000D0003702000837020008370200080D2900081F
:1000E00051090008370200083702000837020008EB
:1000F00037020008370200083702000837020008FC
:1001000037020008370200084120000837020008C3
:100110003702000837020008CD2000083702000827
:1001200037020008370200083702000837020008CB
:1001300000F002F800F063F80AA090E8000C824496
:100140008344AAF10107DA4501D100F058F8AFF273
:10015000090EBAE80F0013F0010F18BFFB1A43F0A5
:1001600001031847EC3C00000C3D00000A444FF02E
:10017000000C10F8013B13F0070408BF10F8014B06
:100180001D1108BF10F8015B641E05D010F8016B4B
:10019000641E01F8016BF9D113F0080F1EBF10F8AF
:1001A000014BAD1C0C1B09D16D1E58BF01F801CBD2
:1001B000FAD505E014F8016B01F8016B6D1EF9D555
:1001C0009142D6D37047000000230024002500266A
:1001D000103A28BF78C1FBD8520728BF30C148BFAA
:1001E0000B6070471FB500F005F9040000200021E6
:1001F00003F01AF8401C60601FBD10B510BD00F080
:10020000D4F81146FFF7EEFF02F008FE00F004F903
:1002100003B4FFF7F2FF03BC00F044F9094880473C
:1002200009480047FEE7FEE7FEE7FEE7FEE7FEE7D8
:10023000FEE7FEE7FEE7FEE704480549054A064BF0
:1002400070470000A11D000831010008600A00206D
:1002500060100020600C0020600C002070B5064685
:1002600000F00CF80468054630460A22002100F030
:1002700009F82C6070BD70477047704700487047A0
:10028000FC0900202DE9F04791460F4680460446C0
:10029000002614F8015B2DB100F030F80068405DD5
:1002A000C007F6D12B2D02D02D2D18D0641E4A4642
:1002B0003946204600F02AF827B13968A14201D119
:1002C000C7F800804FF0020471050BD540420028AA
:1002D00003DDFFF7D3FF0460A007BDE8F08746F415
:1002E0008066E4E70028F8DAFFF7C8FF04606FF0E3
:1002F0000040F2E700487047FC09002010B500F00C
:1003000079F8001D10BD00BF212F00002DE9F05F1E
:10031000824615468B4600270AF10104B94600784B
:10032000302801D09DB113E014F8010B0127782883
:1003300003D0582801D045B10AE00DB1102D07D1E6
:10034000002714F8010B102502E0082500E00A251B
:100350000026B0460EE005FB080005FB06F101276C
:100360001FFA80F801EB1046B6F5803F00D3B9467E
:1003700014F8010B294600F041F80028EBDABBF134
:10038000000F05D00FB1641E00E05446CBF80040CA
:10039000B9F1000F06D0FFF771FF02210160C81EFE
:1003A000BDE8F09F48EA0640FAE77546FFF7A2FF6E
:1003B000AE4605006946534620F00700854618B052
:1003C00020B5FFF739FFBDE820404FF000064FF0A1
:1003D00000074FF000084FF0000B21F00701AC467A
:1003E000ACE8C009ACE8C009ACE8C009ACE8C00999
:1003F0008D467047004870471C0A00203A2800D2FA
:10040000303820F02002412A01D3A2F1370088427F
:1004100001D34FF0FF3070470446AFF30080204611
:10042000FFF7F6FE4FF0013C50F8042B51F8043B67
:100430009A4221D1A2EB0C03934313EACC1317D1B8
:1004400050F8042B51F8043B9A4215D1A2EB0C034F
:10045000934313EACC130BD150F8042B51F8043B0F
:100460009A4209D1A2EB0C03934313EACC13DBD0DD
:100470004FF00000704700BFD01A01BAB1FA81F105
:1004800001F0180122FA01F0CB40C1F12001DBB2EA
:10049000C0B2C01A2CFA01F3D11A914311EAC31168
:1004A000E6D1704701491820ABBEFEE726000200E6
:1004B000704721B1826842F00102826003E08268E5
:1004C00022F001028260704710B50446124884424F
:1004D00008D10121401501F045FA0021601501F015
:1004E00041FA17E00D48844208D10121001501F0BE
:1004F00039FA0021201501F035FA0BE00848844252
:1005000008D10121C80301F02DFA00214FF4004069
:1005100001F028FA10BD000000240140002801402D
:10052000003C0140014600208A6802F004020AB142
:10053000012000E0002070470146C86C80B270477F
:100540000246002013680B400BB1012000E00020A0
:100550007047014600208A6802F008020AB10120B3
:1005600000E000207047000030B502460020002364
:1005700050680F4C20400D790C6844EA0524204354
:10058000506090680B4C2040D1E902542C434D79C7
:1005900044EA450420439060D06A20F470000C7C4B
:1005A000641EE4B2234340EA0350D06230BD000031
:1005B000FFFEF0FFFDF7F1FFF0B504460D46002009
:1005C0000021092D11DDE068A5F10A0606EB4607BA
:1005D000072606FA07F18843A5F10A0606EB460648
:1005E00003FA06F10843E0600CE0206905EB4507DB
:1005F000072606FA07F1884305EB450603FA06F1DC
:1006000008432061072A0FDA606B561E06EB860747
:100610001F2606FA07F18843561E06EB860605FAE2
:1006200006F10843606322E00D2A0FDA206BD61F23
:1006300006EB86071F2606FA07F18843D61F06EB4E
:10064000860605FA06F10843206310E0E06AA2F18D
:100650000D0606EB86071F2606FA07F18843A2F16E
:100660000D0606EB860605FA06F10843E062F0BDCA
:10067000816841F008018160704721B1826842F4CD
:10068000A002826003E0826822F4A00282607047C8
:10069000816841F0040181607047000000B587B0B7
:1006A00001214FF4017001F04DF94FF4004001F0C9
:1006B0001DF90420ADF8040000208DF8070001A901
:1006C0001A4800F05DFC1A48FFF7FEFE0020029079
:1006D00001208DF80C008DF80D004FF4602004907F
:1006E0000020059001208DF8180002A91048FFF79E
:1006F0003BFF01210E48FFF7DCFE0D48FFF7B8FF76
:1007000000BF0B48FFF725FF0028FAD10848FFF784
:10071000BFFF00BF0648FFF705FF0028FAD10121FF
:100720000348FFF7AAFF07B000BD00000008014022
:10073000002401402DE9F04100260C21022000F0A8
:1007400017FD1E4908801E4909681C4A1288881A2C
:1007500002F0FEFD1B4908601B490988174A1288F0
:10076000881A02F0F5FD06461448008816490880EC
:100770001448006802F0D0FD051E01DB284600E0A9
:100780006842B0F5FA7F14DA31461048006802F08A
:10079000F7FD07460B4801680D48006802F0F0FDC0
:1007A0008046394602F056FD054602F0B5FD04B21A
:1007B00000E000242046BDE8F08100006A0000202F
:1007C0000000002074000020900000207000002035
:1007D0006C00002000BFFEE77047000000B589B044
:1007E0000121022001F08EF80121042001F0AAF875
:1007F00002A800F09BFCC020ADF8080003208DF893
:100800000A0048208DF80B0002A9264800F0B8FB2A
:100810001D208DF8040000208DF805008DF80600DD
:1008200001208DF8070001A800F042FE1E4801F0EB
:10083000F7FC06A801F080FF0020ADF818004FF685
:10084000FF70ADF81C000020ADF81E001020ADF8C0
:100850001A0006A9144801F01DFF02231A460321BD
:10086000114801F0D1FD03A801F046FE0620ADF8C5
:10087000140003A90C4801F0E9FD01210A4801F028
:10088000BFFC01221146084801F03FFE42F2107001
:100890000549243108800121034801F0B4FC09B066
:1008A00000BD0000000801400004004010B50A200F
:1008B00002F07AF91D480068002833D100BF1B48B8
:1008C00000680028FBD01A480068C0431949C1F8E5
:1008D000880119480078062822D2DFE800F02103B9
:1008E000090F151B15480088401E1449088018E0A0
:1008F00013480088401E1249088012E01148008801
:100900000A38104908800CE00F480088401E0E4944
:10091000088006E00D4800880A380C49088000E08D
:1009200000BF00BF012000F01DFA10BD00012142F0
:100930008881224200802242BA0100200400002067
:1009400006000020080000200A0000200C00002003
:1009500010B54FF4806000F00BFA40B30A2002F0AB
:1009600023F925480068F0B900BF23480068002833
:10097000FBD022480068C0432149C1F8880100200B
:100980002049087020480078204908701E480078E7
:10099000401E1D4908700846007820B901200870E3
:1009A00002201A4908704FF4806000F0DBF94FF420
:1009B000805000F0DDF9F0B10A2002F0F5F80E48A1
:1009C0000830006898B900BF0B480830006800285C
:1009D000FAD0094884300068C0430D49C1F8AC0121
:1009E0000748D0F88801C0430549C1F888014FF491
:1009F000805000F0B7F910BD2801214288812242C1
:100A000000802242BD010020BA010020BB0100206D
:100A10000000214210B50A2002F0C6F81D48006807
:100A2000002832D103E00A2002F0BEF8641C194805
:100A300000680028F7D018480068C0431749C1F87B
:100A40008801C82C1BDD16480078012817D11548ED
:100A50000088154908801548008848801448008897
:100A6000888014480088C8801348008808810522BF
:100A7000124801F01FF801201149087004E01148E4
:100A80000078401F1049087000BF022000F06AF98A
:100A900010BD0000040121428881224200802242D0
:100AA0002000002004000020DC09002006000020B7
:100AB000080000200A0000200C0000200080000830
:100AC000BD010020BA010020BC01002010B50A20A1
:100AD00002F06AF81D480068002833D100BF1B48A7
:100AE00000680028FBD01A480068C0431949C1F8C3
:100AF000880119480078062822D2DFE800F0210397
:100B0000090F151B15480088401C1449088018E07F
:100B100013480088401C1249088012E011480088E0
:100B20000A30104908800CE00F480088401C0E492C
:100B3000088006E00D4800880A300C49088000E073
:100B400000BF00BF102000F00DF910BD10012142C0
:100B50008881224200802242BA0100200400002045
:100B600006000020080000200A0000200C000020E1
:100B700010B50A2002F018F813480068F8B900BF51
:100B8000114800680028FBD010480068C043104995
:100B9000C1F8880100200F4908700F4800780F49FC
:100BA00008700D480078401C0B4908700846007812
:100BB000092804DD09200870082008490870202051
:100BC00000F0D0F810BD00001401214288812242BB
:100BD00000802242BD010020BA010020BB0100209C
:100BE0000EB50121084600F0ADFE02F029F8002103
:100BF000084600F0A5F90120019000208DF80800BA
:100C00000C208DF8090001208DF80A0001A800F0E1
:100C1000C3F80121002000F093F902200190002088
:100C20008DF808000C208DF8090001208DF80A00CD
:100C300001A800F0B1F80421002000F081F9102093
:100C4000019000208DF808000C208DF8090001208B
:100C50008DF80A0001A800F09FF80521002000F09F
:100C60006FF92020019000208DF808000C208DF8ED
:100C7000090001208DF80A0001A800F08DF80A2172
:100C8000002000F05DF94FF48060019000208DF8A5
:100C900008000C208DF8090001208DF80A0001A839
:100CA00000F07AF80C21002000F04AF94FF480504F
:100CB000019000208DF808000C208DF8090001201B
:100CC0008DF80A0001A800F067F807208DF80000F1
:100CD00002208DF8010000208DF8020001208DF81F
:100CE0000300684600F0E4FB06208DF800000220B7
:100CF0008DF8010000208DF8020001208DF803001E
:100D0000684600F0D5FB0A208DF8000002208DF81F
:100D1000010000208DF8020001208DF803006846D4
:100D200000F0C6FB17208DF8000002208DF80100AE
:100D300000208DF8020001208DF80300684600F0C5
:100D4000B7FB28208DF8000002208DF8010000205C
:100D50008DF8020001208DF80300684600F0A8FB22
:100D60000EBD0000014908607047000014040140F6
:100D7000014600200022074B1B6803EA0102054BD5
:100D800014331B680B4013B10AB1012000E00020AE
:100D90007047000000040140002123498279002AA5
:100DA0003AD00A46126803689A430B461A600A1D35
:100DB000126803689A430B1D1A60027911440A688D
:100DC00003681A430A60184A0832126803689A4393
:100DD000154B08331A601A1D126803689A43124BA8
:100DE0000C331A604279102A0ED11A1F1268036858
:100DF0001A430D4B08331A601A1D126803681A4310
:100E0000094B0C331A600DE00749427911440A6816
:100E100003681A430A6005E0027911440A6803680E
:100E20009A430A60704700000004014030B5044650
:100E300004254FF4302000F06FF80546042D17D13B
:100E40000C48006940F002000A4908610846446104
:100E5000006940F0400008614FF4302000F05CF879
:100E600005460448006941F6FD71084001490861E2
:100E7000284630BD0020024004200B49C96801F01B
:100E8000010109B101200EE00749C96801F0040120
:100E900009B1022007E00449C96801F0100109B155
:100EA000032000E00420704700200240034800694E
:100EB00040F08000014908617047000000200240B6
:100EC00070B504460D460426F00200F025F80646EB
:100ED000042E11D10948006940F00100074908615A
:100EE0002580F00200F018F806460448006941F633
:100EF000FE71084001490861304670BD0020024083
:100F00000248034948600348486070472301674529
:100F100000200240AB89EFCD00B502460423FFF765
:100F2000ABFF034603E0FFF7A7FF0346521E012B6A
:100F300001D1002AF7D102B90523184600BD0000EF
:100F400030B500228B071C0F0F2303FA04F20B4B62
:100F50008C1053F824309343084C8D1044F82530FE
:100F600023468C1053F824308C07240F00FA04F425
:100F70002343024C8D1044F8253030BD0800014059
:100F80002DE9F04102460025002600200023002420
:100F9000002791F803C00CF00F0591F803C00CF086
:100FA000100CBCF1000F03D091F802C04CEA05050B
:100FB00091F800C0BCF1000F31D0146800202BE084
:100FC0004FF0010C0CFA00F3B1F800C00CEA030674
:100FD0009E4220D183004FF00F0C0CFA03F7BC4364
:100FE00005FA03FC4CEA040491F803C0BCF1280F95
:100FF00006D14FF0010C0CFA00FCC2F814C00AE054
:1010000091F803C0BCF1480F05D14FF0010C0CFA68
:1010100000FCC2F810C0401C0828D1D31460B1F8FD
:1010200000C0BCF1FF0F34DD546800202EE000F159
:10103000080C4FF0010808FA0CF3B1F800C00CEAF4
:1010400003069E4221D183004FF00F0C0CFA03F7E8
:10105000BC4305FA03FC4CEA040491F803C0BCF15C
:10106000280F05D100F1080C08FA0CF8C2F814801A
:1010700091F803C0BCF1480F07D100F1080C4FF004
:10108000010808FA0CF8C2F81080401C0828CED3DA
:101090005460BDE8F0810000F0B50A46002300244A
:1010A0000021002500F00046B6F1004F02D11D4E90
:1010B000F16901E01B4E7168C0F3034583B200F48F
:1010C0004016B6F5401F08D121F07061154E7668C4
:1010D00026F07066134F7E6012E000F48016B6F5BD
:1010E000801F06D1032606FA05F4A14341F0706182
:1010F00006E0460D360103FA06F6B14341F0706191
:1011000022B1460D360103FA06F6314300F00046DF
:10111000B6F1004F02D1034EF16101E0014E716062
:10112000F0BD000000000140016170474FF6FF7103
:101130000180022181700421C170704710B50446FE
:101140000723012221460948FFF736FA0121074803
:10115000FFF793FA00BF02210448FFF7F1F90028D6
:10116000F9D00248FFF7E8F910BD00000024014063
:101170002DE9F04107460C460025002608E03846D8
:10118000FFF7DCFF0544C82001F034FD701CC6B237
:10119000A642F4DBB5FBF4F080B2BDE8F08100BFFD
:1011A000FEE7000008B50121082000F0CBFB4FF45A
:1011B0004070ADF8000010208DF8030003208DF87A
:1011C000020069460448FFF7DBFE4FF44071024815
:1011D000FFF7AAFF08BD0000000C014010B5012078
:1011E000084908600849C1F8A00101F003FD00208A
:1011F00004490860012001F0FDFC00200249C1F80B
:10120000A00110BDA48121420080214210B5002020
:10121000084908600849C1F8A401012001F0EAFC6E
:101220000120044908600449C1F8A40101F0E2FC6E
:1012300010BD0000A08121420080214270B504460B
:1012400000201A49086000251BE004F0800020B14E
:1012500001201649091D086003E000201349091DFB
:1012600008606006040E01201049086001F0C2FC0D
:1012700000200F49C1F8A001012001F0BBFC681C4F
:10128000C5B2082DE1DB01200849091D086001F005
:10129000B1FC01200649C1F8A00101F0ABFC00201F
:1012A00002490860012001F0A5FC70BDA081214227
:1012B0000080214208B50121202000F043FB1020CE
:1012C0008DF8030003208DF802000420ADF8000023
:1012D00069460448FFF754FE04210248FFF724FF43
:1012E00008BD00000014014010B5484800780528EA
:1012F0000BD147480078062807D101F027FA0420CF
:101300004349087001204349087040480078062886
:101310000BD13F480078052807D101F069FA072072
:101320003B49087002203B4908703A480078012880
:1013300035D10123384802880321182000F0AEF986
:101340000123364802880421182000F0A7F9012360
:10135000334802880521182000F0A0F90123314804
:1013600002880621182000F099F901232E480288EE
:101370000721182000F092F925480078801CC1B29E
:1013800001236FF00F02372000F0D8F91F480078D2
:10139000801CC1B201234C22372000F0CFF91D4838
:1013A0000078022812D11A480078C01EC1B2012369
:1013B0006FF00F02372000F0C1F914480078C01E0A
:1013C000C1B201234C22372000F0B8F9012317489D
:1013D00002880621462000F061F9154802880123A1
:1013E0000421462000F05AF912480068012806D16D
:1013F000012311A20721462000F000FA05E0012395
:101400000EA20721462000F0F9F910BDBA01002014
:10141000BB01002020000020040000200600002066
:10142000080000200A0000200C00002038000020E6
:1014300024040040AC012142204F4E004F4646009C
:1014400008B50121042000F07DFA0121082000F0F8
:1014500079FA48F21000ADF8000010208DF8030072
:1014600003208DF8020069460B48FFF789FD4FF411
:101470000060ADF8000010208DF8030003208DF807
:10148000020069460548FFF77BFD0020044908601B
:101490000449C1F8BC0108BD000C0140000801402E
:1014A000908121420080214200BFFEE7704700008A
:1014B00070B5002100230F22C47804B3154C2468B2
:1014C00004F4E064C4F5E064210AC1F10403CA40F5
:1014D000447804FA03F184781440214309010E4C46
:1014E0000678A155047804F01F050124AC40057866
:1014F0006D11AD0005F1E025C5F8004109E0047863
:1015000004F01F050124AC40044D0678761145F81F
:10151000264070BD0CED00E000E400E080E100E05A
:1015200002490143024A1160704700000000FA05B9
:101530000CED00E070B50646002415E004F1B001A2
:10154000C8B201F0DEFA002001F0DBFA102001F051
:10155000D8FA002504E0304601F0E3FA681CC5B271
:10156000802DF8DB601CC4B2082CE7DB70BD10B521
:10157000642001F019FBAE2001F0C3FA202001F035
:10158000C0FA102001F0BDFAB02001F0BAFAC8206C
:1015900001F0B7FA002001F0B4FA102001F0B1FA1E
:1015A000402001F0AEFA812001F0ABFAAF2001F04B
:1015B000A8FAA12001F0A5FAA62001F0A2FAA8201D
:1015C00001F09FFA3F2001F09CFAA42001F099FA63
:1015D000D32001F096FA002001F093FAD52001F013
:1015E00090FAF02001F08DFAD92001F08AFA222039
:1015F00001F087FADA2001F084FA122001F081FA72
:10160000DB2001F07EFA202001F07BFA8D2001F032
:1016100078FA142001F075FAAF2001F072FA10BDCB
:1016200070B504460D4605F1B001C8B201F069FA83
:10163000102141EA141001F064FA04F00F0141F0A6
:10164000010001F05EFA70BD2DE9F04180460E46C2
:10165000174600247D0131464046FFF7E1FF00BFF9
:1016600006E00D49485D01F05CFA6D1C601CC4B2D7
:10167000102CF6DB701CC1B24046FFF7D1FF0024EE
:1016800006E00549485D01F04CFA6D1C601CC4B2CF
:10169000102CF6DBBDE8F0819C0000202DE9FF470F
:1016A00006468846154699460024ADB94B462A465B
:1016B0004146304600F042F801240AE0062101FBD1
:1016C0000461C8B24B466FF00F02414600F036F895
:1016D000641C052CF2DB2EE00BE00A2095FBF0F1F8
:1016E00000FB11504DF824000A2095FBF0F085B264
:1016F000641C0A2DF1DA4DF824502746002418E026
:10170000381B0AD5062101FB0461C8B24B466FF0B5
:101710000F02414600F012F80AE0391B5DF8212063
:10172000062101FB0461C8B24B46414600F006F8B1
:10173000641C052CE4DBBDE8FF8700002DE9F047C1
:1017400006460F469046994600250024B9F1010F40
:1017500003D0B9F1020F49D11AE008F11000C5B267
:101760007E2E02DD0026781CC7B239463046FFF7D0
:1017700057FF002409E005EB45011E4A02EB410139
:10178000085D01F0CEF9601CC4B2062CF3DB2DE03D
:1017900008F11000C5B2782E02DD0026781CC7B211
:1017A00039463046FFF73CFF002407E004EB051103
:1017B000114A505C01F0B5F9601CC4B2082CF5DB8D
:1017C000781CC1B23046FFF72BFF002408E004EB81
:1017D00005110831084A505C01F0A3F9601CC4B23D
:1017E000082CF4DB06F10800C6B200BF00BFBDE85C
:1017F000F087000002360008303800082DE9F04775
:101800000646894617469A464FF0000800240025F0
:10181000BAF1010F03D0BAF1020F5ED125E020E04A
:10182000785D203800F0FF087E2E04DD002609F1E7
:10183000010000F0FF0949463046FFF7F1FE0024A1
:1018400009E008EB4801264A02EB4101085D01F07E
:1018500068F9601CC4B2062CF3DBB01DC6B2681C6C
:10186000C5B2785D0028DBD137E032E0785D203802
:1018700000F0FF08782E04DD002609F1010000F0D9
:10188000FF0949463046FFF7CBFE002407E004EB92
:101890000811144A505C01F044F9601CC4B2082CD1
:1018A000F5DB09F10100C1B23046FFF7B9FE0024B3
:1018B00008E004EB081108310A4A505C01F031F9E4
:1018C000601CC4B2082CF4DB06F10800C6B2681C28
:1018D000C5B2785D0028C9D100BF00BFBDE8F08760
:1018E000023600083038000870470000014600202A
:1018F000034A506820F4404008435060704700009D
:101900000010024029B1064AD2690243044BDA6151
:1019100004E0034AD2698243014BDA617047000058
:101920000010024029B1064A12690243044B1A61B1
:1019300004E0034A12698243014B1A6170470000B8
:101940000010024029B1064A92690243044B9A6191
:1019500004E0034A92698243014B9A617047000098
:101960000010024029B1064AD2680243044BDA60F3
:1019700004E0034AD2688243014BDA6070470000FA
:101980000010024030B500210022002400232D4D1C
:101990006D6805F00C0121B1042905D0082923D177
:1019A00005E0294D056022E0274D05601FE0254D2B
:1019B0006D6805F47012234D6D6805F480340225BE
:1019C00005EB92421CB9214D554305600BE01D4DBE
:1019D0006D6805F400351DB11C4D5543056002E0EE
:1019E000194D5543056002E0174D056000BF00BF6B
:1019F000144D6D6805F0F0010909154D6B5C056823
:101A0000DD4045600F4D6D6805F4E061090A104D39
:101A10006B5C4568DD4085600A4D6D6805F460517A
:101A2000C90A0B4D6B5C4568DD40C560054D6D68AE
:101A300005F44041890B074D6B5CC568B5FBF3F5B8
:101A4000056130BD0010024000127A0000093D001F
:101A5000C5010020D50100200188074A1180418876
:101A6000064A11808188064A1180C188054A118082
:101A70000189054A118070470400002006000020FB
:101A8000080000200A0000200C00002030B50346AA
:101A90000C461546002207E0184600F008F824F826
:101AA00012009B1C501C82B2AA42F5DB30BD0146DD
:101AB000088870472DE9F05F80468A461746B8F1DE
:101AC000006F02D33348804501D3BDE8F09FFFF794
:101AD00017FAA8F1006B4FEADB25CBF34909C9F5EA
:101AE0008064A74200DC3C464DE04FF0006101EB12
:101AF000C5204A142849FFF7C9FF00260BE009EB6F
:101B00000600254931F810004FF6FF71884200D0D9
:101B100003E0701C86B2A642F1DB00BFA6421BDACE
:101B20004FF0006101EBC520FFF780F9002608E0C7
:101B30003AF8160006EB0901174A22F81100701C4A
:101B400086B2A642F4DB4FF0006101EBC5204A14D7
:101B5000114900F023F804E022465146404600F0C7
:101B60001DF8A74200D10FE06D1C4FF000090AEBF1
:101B7000440AA044381B87B2B7F5806F02DD4FF4EA
:101B8000806400E03C46B0E700BFFFF78FF900BF7C
:101B90009BE7000000000408DC0100202DE9F04173
:101BA00005460E461746002407E036F8141028466E
:101BB000FFF786F9AD1C601C84B2BC42F5DBBDE8C2
:101BC000F081704710B500F001F810BD0CB5002091
:101BD000019000903348006840F48030314908603B
:101BE00000BF3048006800F4003000900198401CAD
:101BF0000190009818B90198B0F5A06FF1D129486B
:101C0000006800F4003010B10120009001E00020D5
:101C100000900098012843D12348006840F010004C
:101C2000214908600846006820F003000860084663
:101C3000006840F0020008601A484068194948608E
:101C40000846406848600846406840F48060486044
:101C50000846406820F47C1048600846406840F41C
:101C6000E81048600846006840F08070086000BFD7
:101C70000C48006800F000700028F9D0094840685E
:101C800020F00300074948600846406840F0020021
:101C9000486000BF0348406800F00C000828F9D1F4
:101CA0000CBD000000100240002002402DE9F0476A
:101CB00080460024404601F04BFB0446264920465E
:101CC00001F05EFB074625492548006801F058FBF6
:101CD0008146394601F0BEFA044621480460214895
:101CE000B0F9000001F034FB0746214601F014FC76
:101CF000064631461C48006801F0ACFA1A490860F3
:101D00000846006801F008FB071E01DB384600E0CA
:101D1000784244F62061884206DD31461248006868
:101D200001F0FAFB10490860104801680E4800688D
:101D300001F026FB07460E480168304601F020FB03
:101D40008146394601F086FA0546284601F0E4FA54
:101D500000B2BDE8F0870000CDCC4C3FCDCC4C3E6E
:101D60008C00002084000020800000207C000020E7
:101D700078000020042808D14FF0E021096941F0E3
:101D800004014FF0E022116107E04FF0E021096902
:101D900021F004014FF0E02211617047704700000C
:101DA00010B51348006840F001001149086008466A
:101DB0004068104908400E494860084600680E49CE
:101DC00008400B4908600846006820F4802008603D
:101DD0000846406820F4FE0048604FF41F00886009
:101DE000FFF7F0FE4FF000600449086010BD0000EE
:101DF000001002400000FFF8FFFFF6FE08ED00E0D3
:101E0000F0B50C46154600220021068C4FF6FE77F1
:101E10003E400684028B018C4FF60C7632407E1CCD
:101E200006EA03162E433243104EB0420ED0104E37
:101E3000B0420BD0B0F1804F08D00E4EB04205D06A
:101E40000D4EB04202D00D4EB04206D14FF6FD7697
:101E5000314044F00106314305E04FF6F57631405C
:101E600044F00106314302830184F0BD002C01409F
:101E7000003401400004004000080040000C004015
:101E8000F0B50C461546002200210026078C4FF6BF
:101E9000EF7C07EA0C070784028B018C4FF6FF7773
:101EA00007EA041640F6FF473A404FF6FF7707EA85
:101EB00003373A434FF6FF7707EA05273A43114FB6
:101EC000B8420ED0104FB8420BD0B0F1804F08D0BE
:101ED0000E4FB84205D00E4FB84202D00D4FB84257
:101EE00006D14FF6DF77394046F01007394305E059
:101EF0004FF65F77394044F010073943028301847D
:101F0000F0BD0000002C01400034014000040040FE
:101F100000080040000C0040F0B50C4615460022B9
:101F200000210026078C4FF6FF6C07EA0C07078498
:101F3000828B018C4FF6FF7707EA04264FF60C7769
:101F40003A404FF6FF7707EA03172F433A43114F02
:101F5000B8420ED0104FB8420BD0B0F1804F08D02D
:101F60000E4FB84205D00E4FB84202D00D4FB842C6
:101F700006D14FF6FF57394046F48077394305E0E4
:101F80004FF2FF57394044F480773943828301840C
:101F9000F0BD0000002C014000340140000400406E
:101FA00000080040000C0040F0B50C461546002229
:101FB00000210026078C4EF6FF7C07EA0C070784F9
:101FC000828B018C4FF6FF7707EA043640F6FF4715
:101FD0003A404FF6FF7707EA05273A434FF6FF7777
:101FE00007EA03373A43114FB8420ED0104FB842B8
:101FF0000BD0B0F1804F08D00E4FB84205D00E4F35
:10200000B84202D00D4FB84206D14DF6FF773940A5
:1020100046F48057394305E047F6FF57394044F40A
:102020008057394382830184F0BD0000002C0140B9
:10203000003401400004004000080040000C004053
:1020400010B50948008800F0010028B100F040FFF9
:102050000648006801F070F80348008820F001008D
:102060000149088010BD0000100C00403C00002019
:102070007FB505460C4601210820FFF743FCADF86B
:102080000850ADF804400020ADF80A00ADF8060095
:1020900001A90D4800F0FEFA012211460A4800F09D
:1020A00034FA32208DF8000001208DF801008DF8FF
:1020B00002008DF803006846FFF7FAF90121024893
:1020C00000F0A1F87FBD0000000C004010B52548CD
:1020D000008A00F0010000283CD0FEF72BFB2249CB
:1020E000088022480078401C204908702048007869
:1020F000401C1F490870084600780A2814DD00209B
:1021000008701C4800881C490988401A00B21B4905
:10211000088018480088184908801848B0F900005D
:10212000FFF7C4FD164908800F49B1F90010144AA1
:10213000B2F90020881800F0FFFF0C480078C8288A
:1021400008DD0020094908700E480068C0430E49A8
:10215000C1F888010348008A20F001000149088283
:1021600010BD0000001000409400002093000020EB
:1021700092000020240400408600002088000020F7
:102180009600002088812242008022427FB50546C9
:102190000C4601211020FFF7B5FBADF80850ADF853
:1021A00004400020ADF80A00ADF8060001A90D4872
:1021B00000F070FA012211460A4800F0A6F9362014
:1021C0008DF8000001208DF801008DF802008DF8D7
:1021D00003006846FFF76CF90121024800F013F88C
:1021E0007FBD00000010004021B1028842F0800253
:1021F000028004E002884FF67F731A400280704725
:10220000CA430282704721B1028842F00102028073
:1022100004E002884FF6FE731A4002807047000007
:1022200010B504466848844208D10121C014FFF764
:1022300099FB0021E014FFF795FBC4E0B4F1804F57
:1022400008D101210846FFF76DFB00210120FFF7AF
:1022500069FBB8E05D48844208D101210220FFF704
:1022600061FB00210220FFF75DFBACE0584884428F
:1022700008D101210420FFF755FB00210420FFF7BE
:1022800051FBA0E05348844208D101210820FFF708
:1022900049FB00210820FFF745FB94E04E488442AB
:1022A00008D101211020FFF73DFB00211020FFF78E
:1022B00039FB88E04948844208D101212020FFF7FA
:1022C00031FB00212020FFF72DFB7CE044488442B5
:1022D00008D101214014FFF745FB00216014FFF7EE
:1022E00041FB70E03F48844209D10121C804FFF757
:1022F00039FB00214FF40020FFF734FB63E03A483C
:10230000844209D101210805FFF72CFB00214FF47D
:102310008010FFF727FB56E03448844209D10121A1
:102320004805FFF71FFB00214FF40010FFF71AFBD1
:1023300049E02F48844208D101214020FFF7F2FAFA
:1023400000214020FFF7EEFA3DE02A48844208D100
:1023500001218020FFF7E6FA00218020FFF7E2FA52
:1023600031E02548844208D101218015FFF7DAFACF
:102370000021A015FFF7D6FA25E02048844209D1B4
:1023800001210804FFF7EEFA00214FF48030FFF737
:10239000E9FA18E01A48844209D101214804FFF7FC
:1023A000E1FA00214FF40030FFF7DCFA0BE01548AA
:1023B000844208D101218804FFF7D4FA00214FF4A8
:1023C0008020FFF7CFFA10BD002C01400004004030
:1023D00000080040000C00400010004000140040C5
:1023E00000340140004C01400050014000540140C5
:1023F00000180040001C0040002000400040014048
:102400000044014000480140F0B50C4615461E4608
:102410000021002200230189028B038C4FF6F877FC
:10242000394021434FF6FC473A4040F201173A4306
:102430004FF6DD773B404FF6FF7707EA06172F434D
:102440003B43018102830384F0BD000070B5054663
:102450000C46244885420ED0234885420BD0B5F166
:10246000804F08D02148854205D02148854202D0BE
:102470002048854200D100E000BF208850B9238960
:10248000A28861882846FFF7BBFCE188284600F057
:10249000D5F825E0208804280AD12389A2886188FC
:1024A0002846FFF7EDFCE188284600F0D0F817E059
:1024B000208808280AD12389A28861882846FFF746
:1024C0002BFDE188284600F0CFF809E02389A28897
:1024D00061882846FFF768FDE188284600F0CDF8BE
:1024E00070BD0000002C0140003401400004004099
:1024F00000080040000C00400021018041800121C3
:1025000081800021C180018170471AB183890B430A
:10251000838102E083898B43838170470A460021CF
:10252000018B4FF6F7731940114301837047000088
:1025300070B5002200230024058C4EF6FF7635404E
:102540000584038C8488828B48F6FF752A404FF6F9
:10255000FF452A400D884FF6FF7606EA05252A43F7
:102560004DF6FF752B400D8906EA05352B434D8846
:1025700006EA05352B430B4DA84202D00A4DA8426E
:1025800008D14BF6FF752C408D894FF6FF7606EA91
:1025900085152C4384808283CD88A0F84050038425
:1025A00070BD0000002C01400034014030B589B0FE
:1025B00005460C4601210846FFF7A4F90121042035
:1025C000FFF7C0F90820ADF8200018208DF823008F
:1025D00003208DF8220008A91748FEF7D1FCADF8BA
:1025E0001850ADF814400020ADF81A001020ADF8D6
:1025F000160005A9800600F04DF86020ADF8040033
:102600000120ADF806000020ADF80A00ADF80C007E
:1026100001A94FF08040FFF78BFF0821C806FFF7A4
:102620007DFF01218807FFF7DFFD01218807FFF704
:10263000EAFD09B030BD000000080140028B4FF6F2
:10264000F3731A400283028B0A4302837047028BA2
:102650004FF2FF331A400283028B4FF6FF7303EAF7
:1026600001231A4302837047828B4FF6F3731A409B
:102670008283828B0A4382837047828B4FF2FF33BF
:102680001A408283828B4FF6FF7303EA01231A43B9
:1026900082837047002202881D4B98420ED01D4B4A
:1026A00098420BD0B0F1804F08D01B4B984205D018
:1026B0001A4B984202D01A4B984204D14FF68F73AE
:1026C0001A404B881A43174B984207D0164B984232
:1026D00004D04FF6FF431A40CB881A4302808B8800
:1026E00083850B8803850A4B98420BD0094B98428F
:1026F00008D00E4B984205D00D4B984202D00D4B9E
:10270000984201D10B7A038601238382704700002F
:10271000002C01400034014000040040000800404B
:10272000000C004000100040001400400040014038
:1027300000440140004801404FF6FF7181800021B4
:102740000180C180418001727047000010B500F027
:1027500099F8012317A203210020FFF74FF8012366
:1027600016A204210020FFF749F8012315A2052134
:102770000020FFF743F8012314A206210020FFF7F1
:102780003DF8012313A207210020FFF737F80123AA
:1027900012A203214620FFF731F8012311A20521DF
:1027A0004620FFF72BF8012310A207216820FFF72E
:1027B00025F810BD6B70613A000000006B69613A4A
:1027C000000000006B64613A000000006B70763A14
:1027D000000000006B64763A00000000706F733AEE
:1027E00000000000616E676C653A0000312F320016
:1027F00010B500F047F8012314A203210020FEF7D2
:10280000FDFF012313A204210020FEF7F7FF01239F
:1028100012A205210020FEF7F1FF012312A20621DA
:102820000020FEF7EBFF012311A207216820FEF72D
:10283000E5FF01230FA203214620FEF7DFFF01235E
:102840000EA205214620FEF7D9FF10BD5374617218
:1028500074000000436972636C6500004C6F636B29
:10286000416E676C6500000046756E6334000000C1
:10287000322F3200706F733A00000000616E676C97
:10288000653A000070B5022415E004F1B001C8B249
:1028900000F037F9002000F034F9102000F031F991
:1028A000002504E0002000F03CF9681CC5B2802D32
:1028B000F8DB601CC4B2082CE7DB70BD10B500204B
:1028C000FEF738FE022200210846FEF7BDFE032275
:1028D00000211020FEF7B8FE042200212020FEF780
:1028E000B3FE052200213020FEF7AEFE06220021B5
:1028F0004020FEF7A9FE072200215020FEF7A4FE8B
:10290000082200216020FEF79FFE10BD10B540F2A6
:1029100025510E4800F02EF8B8B10C4800F0E6F84A
:10292000C4B20A2C08D10120094908700A200949BB
:10293000094A1288885408E006480749098844541F
:1029400005480088401C0449088010BD004800402C
:10295000C4010020E8090020C201002021B18289C1
:1029600042F40052828104E082894DF6FF731A40DE
:102970008281704770B502460024002300250020A4
:1029800040F66A16B14200D100BFC1F3421501F012
:102990001F03012606FA03F3012D02D19689334065
:1029A00006E0022D02D1168A334001E0968A3340B8
:1029B0000C12012606FA04F41688344013B10CB147
:1029C000012000E0002070BDF0B503460024002681
:1029D0000025002040F66A17B94200D100BF184612
:1029E000C1F3421401F01F06012707FA06F5012C76
:1029F00001D10C3004E0022C01D1103000E0143081
:102A00001AB107682F43076002E00768AF43076009
:102A1000F0BD00002DE9F04786B005460E460024C3
:102A2000A24600BFA1460027B08900B100BF2F46D3
:102A30002C8A4CF6FF700440F08804432C82AC8949
:102A40004EF6F3100440B088318908437189084379
:102A50000443AC81AC8A4FF6FF400440B089044384
:102A6000AC8201A8FEF78EFF1F48874202D1DDF835
:102A700010A001E0DDF80CA0A88900F4004040B1EE
:102A80000AEBCA0000EB0A1031684900B0FBF1F80C
:102A900007E00AEBCA0000EB0A1031688900B0FBBE
:102AA000F1F86420B8FBF0F004012009642101FB77
:102AB0001089A88900F4004040B1322000EBC90021
:102AC000B0FBF1F000F00700044308E0322000EB17
:102AD00009106421B0FBF1F000F00F0004432C81D9
:102AE00006B0BDE8F0870000003801400146888844
:102AF000C0F308007047C1F308028280704700BF2E
:102B0000FEE710B50446FEF769FB7820FEF796FB5A
:102B10000020FEF793FB2046FEF790FBFEF776FBC6
:102B200010BD10B50446FEF759FB7820FEF786FB72
:102B30004020FEF783FB2046FEF780FBFEF766FB96
:102B400010BD70B504460D46FEF7DAF904F10A002F
:102B5000FEF76CF9294604F10A00FEF7B1F9FEF719
:102B6000A5F970BD10B56FF00400FFF703F90A482E
:102B700000680A49B0FBF1F009490870084600787E
:102B800000EB4001C1EBC0104FF6FF7101EAC0003D
:102B90000449088010BD00002400002000127A00C3
:102BA000BE010020C00100200146114A12884A439C
:102BB0004FF0E0235A6100229A611A46126942F0EE
:102BC00001021A6100BF4FF0E022106900F001021B
:102BD0001AB100F48032002AF5D04FF0E0221269D9
:102BE00022F001024FF0E0231A6100229A6170473F
:102BF000C00100200146114A12784A434FF0E023F9
:102C00005A6100229A611A46126942F001021A6161
:102C100000BF4FF0E022106900F001021AB100F489
:102C20008032002AF5D04FF0E022126922F0010232
:102C30004FF0E0231A6100229A617047BE01002024
:102C400008B501210420FEF77DFE01210748FEF7AB
:102C500023FA41F23340ADF8000048208DF803001C
:102C600069460348FEF78CF908BD000000023000F9
:102C70000008014010B555480078012805D1002210
:102C800011466F20FEF7E0FC04E0012200216F20D6
:102C9000FEF7DAFC4E480078012831D14D4A1288FF
:102CA0004D4B1B68D11A002901DB0A4600E04A425D
:102CB000B2F5C36F0CDC494A1268494B1B88D01A25
:102CC000002801DB024600E04242B2F5967F17DDA4
:102CD00042F210703F49088000214248FFF793FA02
:102CE00000204149086001214048FFF78CFA404824
:102CF0000068C0433F49C1F888010020344908708A
:102D00003D480078012806D002282ED0032845D05F
:102D1000042858D153E00020384908600021334886
:102D2000FFF771FA4FF47A70FFF73EFF0120344944
:102D3000C1F8AC0133480068404200F0FDF9324967
:102D4000098888B2FFF730FF3048006800F0F4F9D6
:102D50002F49098888B2FFF727FF01212348FFF791
:102D600052FA0020244908702EE000211F48FFF786
:102D70004AFA01211B48FFF746FA42F21070154942
:102D800008802449088013480088134908600020FF
:102D90001949087001200E49087015E01048008894
:102DA0000E4908600846008881B21B48FFF7C9FE3B
:102DB00001200649087000200F49087004E0002037
:102DC0000D49087000E000BF00BF10BDBD0100202C
:102DD000680000202404004098000020000000202B
:102DE000380000200010004080000020000C00404F
:102DF0008881224200802242BC010020AC01214295
:102E000000002142100000201800002014000020C3
:102E10001C0000208600002000800008274C4FF492
:102E2000A060FEF77DFB4FF4165000F0A9F9FEF705
:102E300041FAFFF797FEFEF703FBFDF72FFCFDF7C6
:102E4000CFFEFEF7AFF9FEF792FB002141F61F40DF
:102E5000FFF7ACFB41F61F413120FFF709F941F6BE
:102E60001F413120FFF792F900211548FFF7CBF9F8
:102E7000FDF7B4FC002013490860FFF71FFDFFF7C2
:102E800065FC114800884FF6FF71884202D00E4859
:102E9000FEF7E2FD0C4840894FF6FF71884203D0EF
:102EA000094840890949086006E0FFF7E3FE20462B
:102EB00000F0E2F8FEF718FAF7E70000E809002052
:102EC00000100040AC0121420080000800000020FA
:102ED00010B50C210220FEF74BF9534908805348E6
:102EE000008842F60411884204DD42F210704F4916
:102EF000088009E04D48008842F21C51884203DAFC
:102F000042F210704949088048480088A0F51C50DA
:102F10001038474908600846006846490968401A61
:102F20004549086045480088414909684843444983
:102F30000988414A126801FB02004249086008689A
:102F4000C11700EBD16149113F4A1160104600687A
:102F5000A02803DDA0201146086008E03A48006878
:102F600010F1A00F03DA6FF09F003749086037486F
:102F7000006835490968401A354908600846006804
:102F800029490988401A334908602748008832498E
:102F90000988401A314908602C490968224A128878
:102FA000881A002801DB014600E04142B1F5967F16
:102FB0001FDA2B4800682549096808441A4909881E
:102FC000401A274908602748008809684843642157
:102FD00090FBF1F1244800881E4A126800FB0211A0
:102FE000224800881D4A126800FB12102049086020
:102FF00002E000201E4908600B480088164908803E
:103000000B4800680B4908601A480068401C1949C1
:10301000086008460068C82804D1002010490860EC
:103020001449086010BD000038000020240400404E
:1030300044000020480000204C0000200A0000202E
:103040000C00002050000020540000200000002050
:1030500040000020580000203A0000205C000020C2
:10306000600000200600002004000020080000206E
:103070003C0000206400002070B50546002625486D
:103080000078012845D1002439E02348005D20283C
:1030900028D136B1012E0BD0022E10D0032E20D114
:1030A00014E02819FDF7DAF81C490880761C18E0AE
:1030B0002819FDF7D3F81A490880761C11E0281961
:1030C000FDF7CCF817490880761C0AE02819FDF7AF
:1030D000C5F8154908802846FDF7C0F8134908804F
:1030E00000BF00BF0C48015D1148FFF704FD00BFA1
:1030F0000F48008800F040000028F9D0641C0D48FB
:103100000088401C8442C0DD00200A490880014933
:10311000087070BDC4010020E809002006000020EE
:10312000080000200A0000200C00002004000020FD
:1031300000480040C2010020002808DA4042012176
:103140000C4A116000210C4AC2F8901106E00021DF
:10315000084A11600121084AC2F89011B0F5E15FF8
:1031600004DD4FF4E151054A118001E0034A10806B
:1031700070470000BC812142008021424000004095
:1031800010B586B0044601210820FEF7DBFB0121C3
:103190008804FEF7B7FB4FF48060ADF814000320FD
:1031A0008DF8160018208DF8170005A91C48FDF7AA
:1031B000E7FE4FF40060ADF8140004208DF817000E
:1031C00005A91748FDF7DCFE27208DF80000002038
:1031D0008DF801008DF8020001208DF8030068468B
:1031E000FEF766F901940020ADF80800ADF80A007A
:1031F000ADF80C00ADF810000C20ADF80E0001A9E0
:103200000848FFF707FC012240F225510548FFF767
:10321000DBFB01210348FFF7A1FB06B010BD000056
:10322000000C01400048004010B500290AD0087881
:10323000002807D005487844FDF7F4F8002801D0AD
:10324000002010BD0248784410BD00003A0C000078
:10325000320C000090EA010F48BF81F0004100F1FC
:103260006281421A3CBF801A89184FEAD0524FF04F
:103270007F4C1CEA410FA2EBD15318BF9CEA026FAE
:1032800000F03B804FF0004C4CEA00204CEA01215A
:1032900021FA03FC10EB0C0C1ED202F1FF325FEAA4
:1032A0001C2040EBC25038BF70471CF07F0F4FEA24
:1032B000400C18BFBCF17F4F38BF7047C3F12003EB
:1032C000994008BF20F00100BCF17F4F38BF704724
:1032D000A0F1C04000F01BB94FEA3C00000A40EBEF
:1032E000C25028BF1CF0FF0F4FEA400CE6D018BFB9
:1032F000BCF17F4F38BF7047EAE79CEA026F05D008
:1033000010EA5C0F08BF00F00040704710B500F0F5
:10331000B8F800BF64FBBE3E41000B0ED3F19E0225
:1033200008D950F400034FEA032323FA02F048BF00
:103330004042704710B500F0A4F800BF49922480C5
:10334000002070476FF0004282EA200070470000C2
:1033500010F0004148BF4042B0FA80F310FA03F287
:10336000C3F19D030BD051EAC35101EB1220530668
:1033700038BF704700F1010008BF20F0010070471E
:103380004FF47F0C1CEAD0121EBF1CEAD11392EA44
:103390000C0F93EA0C0F00F0478090EA010F48BF32
:1033A00042F480724FF0004C4CEA00204CEA0121BC
:1033B00002EB0302A0FB0113A2F50002002918BFD3
:1033C00043F001035B0028BF4FEA330342EB224284
:1033D0005FEA132C4CEBC2502EBFBCEB436FB2F52F
:1033E0007C0F70474FEA036CBCF1004F08BF20F020
:1033F0000100B2F57C0F38BF70470BD582F0FF0299
:1034000012F5803FC8BF704700F1C040D8BF00F040
:103410000040704700F5000C5FEA4C0C48BF704755
:10342000B0F1C04000F073B890EA010F0CEAD1137C
:1034300048BF42F48072624538BF634504D280EAD7
:10344000010000F00040704710B500F01AF800BF0E
:103450008900013E00F007B800F009B85FEA410CAE
:103460005FEA1C6C08D080EA010000F050B85FEA07
:10347000400C5FEA1C6CF6D14FF00040A0F58000D4
:1034800070470EF1020E2EF0030E5EF8044B24423C
:1034900004D44FEA4102B2F17F4F11D84FEA400302
:1034A000B3F17F4F0CD80ED14FEAD07CB2F17F4FF1
:1034B0000CEB4C0C0CF1020C08BF4CEBD17C04E083
:1034C0004FF0080C01E04FEAD17C0CEB4C0324FADE
:1034D00003F404F00704B4F1040C06D20EEB840CE0
:1034E000BDE810404CF0010C6047DFE80CF0070825
:1034F00002024FF00040A0F5800010BD08464200D7
:1035000018BFD2F1807288BF00F0004010BDFF21CB
:1035100041EAD050C005704790EA010F48BF81F0E2
:1035200000413FF59EAE421A04D882F00042A0EB63
:10353000020011444FEAD0524FF07F4C1CEA410F79
:10354000A2EBD15318BF9CEA026F4AD04FF0004C57
:103550004CEA00204CEA012121FA03FCB0EB0C0CF0
:103560000FD412F0FE0F36D05FEA4C001DD50012CA
:1035700040EBC25038BF70471CF03F0F18BF704778
:103580000BE0A2F101025FEA1C2040EBC25038BF01
:1035900070471CF07F0F18BF7047C3F1200399409C
:1035A00014BF401E20F00100704780084FEA12232C
:1035B00008BF7047B0FA80FCA2EB0C02CCF1280CDB
:1035C00060FA0CF093EA122F04BF00EBC250704770
:1035D0004FEAC3707047130A5FEADC1008BF7047F8
:1035E000F6E79CEA026F04D010EA5C0F08BF0020E7
:1035F000704710B5FFF745FF40DFF63E81F0004011
:1036000070470000000000000000002F00000000D4
:103610000700070000147F147F1400242A7F2A1259
:103620000062640813230036495522500000050348
:10363000000000001C224100000041221C00001478
:10364000083E08140008083E0808000000A06000BA
:10365000000808080808000060600000002010084A
:103660000402003E5149453E0000427F40000042B6
:1036700061514946002141454B31001814127F1019
:10368000002745454539003C4A4949300001710948
:10369000050300364949493600064949291E0000FC
:1036A00036360000000056360000000814224100A3
:1036B00000141414141400004122140800020151D3
:1036C000090600324959513E007C1211127C007FDC
:1036D00049494936003E41414122007F4141221C77
:1036E000007F49494941007F09090901003E4149DC
:1036F000497A007F0808087F0000417F41000020D0
:1037000040413F01007F08142241007F404040407B
:10371000007F020C027F007F0408107F003E4141C1
:10372000413E007F09090906003E4151215E007FAC
:10373000091929460046494949310001017F010123
:10374000003F4040403F001F2040201F003F4038C6
:10375000403F006314081463000708700807006105
:103760005149454300007F41410000552A552A55E3
:10377000000041417F00000402010204004040407B
:103780004040000001020400002054545478007F9F
:103790004844443800384444442000384444487F76
:1037A00000385454541800087E0901020018A4A4DB
:1037B000A47C007F080404780000447D40000040A1
:1037C00080847D00007F102844000000417F40007D
:1037D000007C04180478007C080404780038444411
:1037E000443800FC242424180018242418FC007CED
:1037F0000804040800485454542000043F44402066
:10380000003C4040207C001C2040201C003C4030FC
:10381000403C004428102844001CA0A0A07C004488
:1038200064544C4414141414141418245A5A2418AC
:103830000000000000000000000000000000000088
:10384000000000F80000000000000033300000001D
:1038500000100C06100C0600000000000000000024
:1038600040C07840C0784000043F04043F04040096
:10387000007088FC08300000001820FF211E0000A6
:10388000F008F000E018000000211C031E211E00BB
:1038900000F00888700000001E2123241927211041
:1038A00010160E00000000000000000000000000E4
:1038B000000000E01804020000000007182040008B
:1038C00000020418E000000000402018070000007B
:1038D000404080F0804040000202010F01020200DF
:1038E000000000F0000000000101011F01010100C3
:1038F000000000000000000080B070000000000028
:1039000000000000000000000001010101010101B0
:103910000000000000000000003030000000000047
:10392000000000008060180400601806010000001C
:1039300000E010080810E000000F102020100F0019
:10394000001010F8000000000020203F20200000A0
:1039500000700808088870000030282422213000F8
:1039600000300888884830000018202020110E0000
:103970000000C02010F8000000070424243F2400A9
:1039800000F80888880808000019212020110E007E
:1039900000E0108888180000000F112020110E0090
:1039A00000380808C83808000000003F0000000088
:1039B0000070880808887000001C222121221C0049
:1039C00000E010080810E0000000312222110F0072
:1039D000000000C0C0000000000000303000000007
:1039E0000000008000000000000080600000000077
:1039F0000000804020100800000102040810200090
:103A000040404040404040000404040404040400DA
:103A1000000810204080000000201008040201006F
:103A2000007048080808F00000000030360100006F
:103A3000C030C828E810E0000718272423140B0022
:103A40000000C038E0000000203C2302022738209C
:103A500008F8888888700000203F202020110E0080
:103A6000C030080808083800071820202010080077
:103A700008F808080810E000203F202020100F0060
:103A800008F88888E8081000203F2020232018002C
:103A900008F88888E8081000203F20000300000094
:103AA000C03008080838000007182020221E020035
:103AB00008F808000008F808203F210101213F20F4
:103AC000000808F8080800000020203F202000001F
:103AD00000000808F8080800C08080807F0000000F
:103AE00008F888C028180800203F20012638200048
:103AF00008F8080000000000203F202020203000AF
:103B000008F8F800F8F80800203F003F003F2000C8
:103B100008F830C00008F808203F200007183F00D0
:103B2000E01008080810E0000F10202020100F00FF
:103B300008F808080808F000203F210101010000F2
:103B4000E01008080810E0000F18242438504F0037
:103B500008F8888888887000203F2000030C3020F7
:103B600000708808080838000038202121221C0035
:103B7000180808F8080818000000203F200000007E
:103B800008F808000008F808001F202020201F0067
:103B90000878880000C83808000007380E010000C7
:103BA000F80800F80008F800033C0700073C030091
:103BB000081868808068180820302C03032C3020F7
:103BC0000838C800C83808000000203F2000000066
:103BD00010080808C83808002038262120201800BE
:103BE000000000FE020202000000007F4040400092
:103BF000000C30C000000000000000010638C000CA
:103C000000020202FE000000004040407F00000071
:103C10000000040202020400000000000000000096
:103C20000000000000000000808080808080808094
:103C3000000202040000000000000000000000007C
:103C400000008080808000000019242222223F2072
:103C500008F8008080000000003F112020110E00B5
:103C60000000008080800000000E11202020110044
:103C7000000000808088F800000E112020103F20F6
:103C80000000808080800000001F2222222213007A
:103C9000008080F0888888180020203F20200000C5
:103CA0000000808080808000006B9494949360007A
:103CB00008F8008080800000203F210000203F2085
:103CC00000809898000000000020203F2020000085
:103CD000000000809898000000C08080807F000075
:103CE00008F8000080808000203F24022D30200052
:103CF000000808F8000000000020203F20200000FD
:103D00008080808080808000203F20003F20003F16
:103D10008080008080800000203F210000203F2024
:103D20000000808080800000001F202020201F00D5
:103D3000808000808000000080FFA12020110E0004
:103D40000000008080808000000E112020A0FF80F5
:103D5000808080008080800020203F2120000100A2
:103D600000008080808080000033242424241900F7
:103D7000008080E0808000000000001F2020000004
:103D80008080000000808000001F202020103F2045
:103D9000808080000080808000010E3008060100D5
:103DA00080800080008080800F300C030C300F007A
:103DB00000808000808080000020312E0E312000A5
:103DC000808080000080808080818E7018060100D5
:103DD00000808080808080000021302C22213000F3
:103DE00000000000807C020200000000003F404014
:103DF00000000000FF00000000000000FF000000C5
:103E00000002027C800000000040403F00000000F3
:103E1000000601010202040400000000000000008E
:103E2000E0F09888989000000F1F3120203F1F007D
:103E3000E0F0180818F0E0000F1F3020301F0F00CE
:103E4000001010F8F80000000020203F3F20200064
:103E5000803F000800000020DC0100006C01000829
:103E60009C400008DC010020840E0000C80100080E
:103E70001001000043000000F8FFFFFF0040404039
:103E8000404040404040414141414140404040402D
:103E900040404040404040404040404040050202D9
:103EA0000202020202020202020202020220202098
:103EB00020202020202020020202020202029090F4
:103EC00090909090101010101010101010101010F2
:103ED0001010101010101010020202020202888846
:103EE0008888888808080808080808080808080852
:103EF000080808080808080802020202400000003A
:103F000000000000000000000000000000000000B1
:103F100000000000000000000000000000000000A1
:103F20000000000000000000000000000000000091
:103F30000000000000000000000000000000000081
:103F40000000000000000000000000000000000071
:103F50000000000000000000000000000000000061
:103F60000000000000000000000000000000000051
:103F70000000000000000000000000000000000041
:103F800023360F1218123112A01214329623B80BD6
:103F900023B00423AE0132A01907211BA24A1261EB
:103FA0000009360102030406070809233042635C56
:103FB000431AF00C61120F031710271D80F8FC8CB8
:103FC0000164FCF880000B241F3F7F7F61617F7FCD
:103FD0003F1FBA40010113300EFEFE32FEEE30DC10
:103FE000CF07CCD8302018093F3F040723381F07DC
:103FF0000941200F08F8F94BCAD818AFA7E4E464C8
:104000006404100F203F1F203F3F301F1F3F3F22FF
:104010002220100F647CFFE7444424A4F47F2F2463
:104020002424180F04043F3F020201010919392D0D
:1040300007032E1D30FCFF2360473232F8F8FFFFE4
:10404000380B3F3F11111F1F0909232360300D0852
:10405000888808090B0A0808C8C808180C202020FE
:10406000232F2C20303C2F230B191F180A08FFFF89
:10407000885E5E5EFEFE05311B212160100A121A69
:104080001E17131A3A3202D301052D01020304044C
:0C40900028080607080902040651000079
:0400000508000131BD
:00000001FF
